:020000040800F2
:10000000A0070020D1000008FD13000871120008AD
:1000100000000000000000000000000000000000E0
:1000200000000000000000000000000001140008B3
:100030000000000000000000FF1300080314000887
:10004000E300000800000000E3000008E3000008EF
:10005000E3000008E3000008E3000008A101000835
:1000600000000000E3000008E3000008E3000008CF
:10007000E3000008E3000008E300000800000000BF
:10008000A5140008B9140008E30000089114000842
:10009000E3000008E3000008E3000008E3000008B4
:1000A000E3000008E3000008E3000008E3000008A4
:1000B000E3000008E30000080448854600F03EF82D
:1000C00000480047D91A0008C046C046A0070020D3
:1000D0000448804704480047FEE7FEE7FEE7FEE7E6
:1000E000FEE7FEE781140008B900000830B50B46B2
:1000F000014600202022012409E00D46D5409D4202
:1001000005D31D469540491B254695404019154687
:10011000521E002DF1DC30BDD2B201E00270401C55
:10012000491EFBD270470022F6E710B513460A4677
:1001300004461946FFF7F0FF204610BD064C012586
:10014000064E05E0E36807CC2B430C3C984710347F
:10015000B442F7D3FFF7B4FFE81D0008081E0008FB
:1001600010B50B4800F03CFE0A490020084C08700E
:100170002068C06A0849884201D101F0EDFC20687E
:10018000C06A0649884201D101F0E2FD10BD0000BD
:10019000C40000201E000020409C00006C070000EE
:1001A00010B5202000F01EF801F06AFD10BD00001F
:1001B00010B5084800F014FE07480078012801D166
:1001C00001F0D0FD05480178012901D1002101701D
:1001D00010BD00002C0000201D0000202000002089
:1001E0007047000070B5084D0446E868204203D00F
:1001F000EC60204600F00AF82869204203D02C6108
:100200002046FFF7EDFF70BD001802407047000068
:10021000FCB5002301259AE022462C469C40224052
:100220006FD04E68012E05D0022E03D0112E01D0C2
:10023000122E16D186680327B4465E00B646B74034
:100240006646BE43B446CF687646B74066463743F7
:1002500087604668A6430C79E406E40F9C4034436B
:100260004460C6685F000324BC40A446A6438C6873
:10027000BC403443C4604C68022C01D0122C14D111
:10028000DC08A40024180194266A5C07B646E60E32
:100290000F24B44000967646A643B6460C69009EED
:1002A000B44076462643019C266204686646B44301
:1002B0000E79B607B60FBE40264306604C68E400D0
:1002C00044D59E08254CB6003419A446246E9E07DA
:1002D000F60E0F27B740BC4305273F07B84201D1B0
:1002E000002710E01E4FB84201D101270BE01D4F3F
:1002F000B84201D1022706E01B4FB84202D10327C2
:1003000001E023E00527B740274364462766134EE4
:10031000803634684F689443FF0300D5144334603B
:1003200074684F689443BF0300D5144374600B4C4A
:1003300026684F689643FF0200D51643266066681C
:100340004F689643BF0200D5164366605B1C0A687F
:100350001446DA4000D05FE7FCBD00000018024000
:100360000004005000080050000C005000690840D4
:1003700000D001207047002A01D08161704781625E
:1003800070470000014880687047000000000020AE
:100390000248816802788918816070470000002057
:1003A00010B50848002401688215114301602046F9
:1003B00000F00AF8002801D0012401E000F028F83C
:1003C000204610BD0020024070B50F4E0024317849
:1003D0000546002915D07D20C000FFF787FE0146A5
:1003E0000A480068FFF782FE00F012FC002808D1DE
:1003F000042D06D200222946401E00F02FF8756019
:1004000000E00124204670BD000000200C00002008
:1004100008B50B48016801221143016000681040D3
:10042000009007484038C26B01040A43C263C06BA6
:10043000084000900320400200F0E0FB08BD0000EF
:1004400040100240002805DBC106C90E012088408B
:10045000014908607047000000E100E010B501F0BC
:1004600099FA10BD10B50F4C216803225202914336
:1004700001432160C11FFF39FA390ED10A48062114
:10048000006848430949FFF731FE401C02E000289C
:1004900005D0401E61694905F9D4002010BD032034
:1004A00010BD0000007000400C00002040420F0012
:1004B000F8B5044600680026524D800358D55148CF
:1004C00000274038C06BC00009D44E484038C26B8A
:1004D00001040A43C263C06B0840012700904A48E8
:1004E0000168821511430160FFF74CFF009005E0A1
:1004F000FFF748FF0099401A022825D842480068B3
:10050000C005F5D5E8690321090208400FD0A169AB
:1005100081420CD0E86903210902EA69884301217C
:1005200009040A43EA61EA698A43EA61E861C007AB
:100530000FD0FFF727FF009008E0FFF723FF009997
:10054000411A3248814201D9032609E0E86980074F
:10055000F3D5E869032109028843A1690843E861EA
:10056000002F05D027484038C16B02049143C16376
:100570002078C00705D0686961688008800008435A
:1005800068612078800705D568690C218843A168D7
:10059000084368612078800606D56869032109034D
:1005A0008843E168084368612088400411D5686980
:1005B00061698000800808436861012160698907DA
:1005C000884206D10F484038C16801221204114305
:1005D000C1602088000512D568690321890388431A
:1005E000216908436861012120698903884206D195
:1005F00004484038C168012212041143C1603046EA
:10060000F8BD000040100240007000408813000058
:10061000F8B50F46060043D04D4D28684007400FFF
:10062000B84213D22868C008C00038432860FFF7DA
:10063000A9FE044605E0FFF7A5FE011B45488142DF
:1006400061D828684007400FB842F4D13068424C66
:1006500081070DD5400704D5A06807210903084389
:10066000A060A0680F2109028843B1680843A06018
:100670003078C00732D0706801280AD002280BD029
:1006800000280FD03449403103280ED0C9698907AA
:1006900004E02168890301E021688901002906DB63
:1006A0000120F8BD21684905F8E7096AEFE7A1686C
:1006B000C908C9000143A160FFF764FE009006E08D
:1006C000FFF760FE0099411A224881421BD8A068BA
:1006D000382108407168C9008842F1D12868400774
:1006E000400FB84217D91A480168C908C9003943F0
:1006F0000160FFF747FE054607E0FFF743FE411B99
:100700001448814201D90320F8BD11480068400710
:10071000400FB842F1D13078400706D5A0680721D4
:1007200009038843F1680843A06000F031F8A1682C
:100730003C2289091140094A515CC906C90EC840CA
:100740000749086007480068FFF73EFEF8BD000053
:10075000002002408813000000100240881D00089D
:100760000C00002004000020064807490068896842
:10077000064A4904490F8900515CC906C90EC840A0
:10078000704700000C00002000100240C81D000847
:1007900010B5204CA068204A8006400F16D0A068F3
:1007A0008006410F501001290FD0A1688906490F1A
:1007B000022912D0A0688006400F042823D0A06828
:1007C0008006400F032821D0002010BD20680121A1
:1007D0008004400F8140104612E0E1688B07E16819
:1007E0009B0F4906490F491C032B00D01046FFF709
:1007F0007DFCE1684904490E4843E168490F491C02
:10080000FFF774FC10BD0120C00310BD7D20000265
:1008100010BD0000001002400024F400F8B50400F0
:100820007ED020783827C007EB4D002846D0A86836
:10083000E96838408907890F102802D008280BD0B2
:1008400001E0032908D001206268000482420AD135
:1008500029680143296015E0286880032ED5606867
:100860000028DDD02AE0052301211B0489049A42D7
:100870002A6802D10A432A60EAE782432A6028688C
:1008800088432860606800280CD0FFF77BFD06468F
:1008900004E0FFF777FD801B642873D82868800385
:1008A000F7D50BE0FFF76EFD064604E0FFF76AFDA3
:1008B000801B6428F1D828688003F7D4207880074B
:1008C00069D5A868E96838408A070721920FC902EC
:1008D000102802D0002813D001E0022A10D0E068CE
:1008E000002846D028688843216908432860286882
:1008F000FF21013108432860FFF744FD06462CE044
:100900002A68520502D5E268002A89D06A687F23E6
:100910001B029A4363691B021A436A60002800E0C5
:100920008DE00ED128688843216908432860286833
:1009300001218004400F8140A848FFF7D7FBA84958
:100940000860A8480068FFF73FFD002877D122E043
:10095000FFF718FD801B02289FD828684005F7D5AF
:1009600068687F2109028843616909020843686059
:1009700011E02968FF20013081432960FFF702FD63
:10098000064605E098E0FFF7FDFC801B022884D8AE
:1009900028684005F7D42078934E00072ED5A86824
:1009A0008006400F03280AD0A0690028306A16D0BC
:1009B000012108433062FFF7E5FC07460BE0306A8F
:1009C00080071BD5A06900289FD017E0FFF7DAFC4D
:1009D000C01B022870D8306A8007F7D50EE04008A7
:1009E00040003062FFF7CEFC074604E0FFF7CAFC88
:1009F000C01B022860D8306A8007F7D420784007EF
:100A00006CD5A86800278006400F042818D0E86B32
:100A1000C00008D4E96B012000070143E963E96BDA
:100A200001400127009171480168C90519D4016886
:100A3000821511430160FFF7A5FC00900DE083E0F3
:100A4000F06980074AD5A06800287DD046E0FFF70E
:100A500099FC0099401A02282ED864480068C00505
:100A6000F5D5A168012910D004200529F16911D01C
:100A700049084900F161F1698143F161A0680028EA
:100A800016D0FFF77FFC00900EE0F06901210843CB
:100A9000F061F3E70143F161F7E7FFF773FC0099B9
:100AA000411A534881426DD8F0698007F5D50EE0B0
:100AB000FFF768FC009007E064E0FFF763FC009933
:100AC000411A4B4881425DD8F0698007F5D4002F68
:100AD00004D0E96B012000078143E963E069002845
:100AE00077D0A9688906490F022951D00126360618
:100AF000022828680DD0B0432860E868800880008C
:100B0000E860E8683B490840E860FFF73BFC0446C2
:100B10003AE0B0432860FFF735FC074604E0FFF7F2
:100B200031FCC01B02282DD828688001F7D4616AE7
:100B3000206AA26A0843E16A120211430843216B4A
:100B40000843E9682C4A00E041E011400843E860AE
:100B5000286830432860E868012109070843E860F5
:100B6000FFF710FC044604E0FFF70CFC001B022812
:100B700008D828688001F7D52BE0FFF703FC001B9D
:100B8000022801D90320F8BD28688001F5D420E0AF
:100B90000128F8D0E868226A8107890F914216D1AE
:100BA0007021626A0140914211D17F21A26A09023B
:100BB0000140120291420AD11F214904E26A014018
:100BC000914204D1400F216B4007884201D001209F
:100BD000F8BD0020F8BD0000001002400024F40021
:100BE0000C00002004000020401002400070004073
:100BF00088130000FFFFFEEF8C80C11F03490A68C5
:100C000003235B029A4302430A60704700000140DD
:100C1000094910B5401E884201D9012010BD074C7A
:100C200060610321081F00F0B5FE0020A0610720CD
:100C30002061002010BD0000FFFFFF0000E000E089
:100C40007047704770470000F0B5034620331A7FA5
:100C5000012A27D001221A7702225A770468626893
:100C6000A568114FBC4205D116460F2212059643C6
:100C70004A6832437026B2430E68164366600068C5
:100C8000B84205D0094A904202D0094A904204D1A4
:100C9000802289689543294381600120587700208C
:100CA0001877F0BD0220F0BD002C01400004004088
:100CB0000040014070B5040005D025462035687F0E
:100CC000002802D006E0012070BD002028772046D1
:100CD00000F016F802206877211D206800F0F4FB70
:100CE000012240342272AA77EA7722706270A270E1
:100CF000E27022716271A271E2716A77002070BDA8
:100D000008B51C4A01681C4891420DD1C26B0221F2
:100D10000A43C263C06B00220840009011461020B5
:100D2000FFF79CFB10200FE0144A91420FD1C26BD9
:100D300010210A43C263C06B002208400090114694
:100D40001120FFF78BFB1120FFF77CFB08BD0C483F
:100D50008142FBD1084840300268C9130A4302604F
:100D6000006800220840009011461320FFF776FB30
:100D70001320E9E70004004000100240001000408A
:100D800000200040014620314A7F012A01D0012085
:100D9000704702224A770168CB6801221343CB6077
:100DA00000680B49884205D00A49884202D00A49A6
:100DB000884207D18168094B1940062905D0DB1FFD
:100DC000994202D001681143016000207047000081
:100DD000002C0140000400400040014007000100D9
:100DE0000168CA6852085200CA6001680A6A084B62
:100DF0001A4207D10A6A9B101A4203D10A685208A4
:100E000052000A6001212030417700207047000025
:100E10001111000070B5054604462035287F0128D1
:100E200017D001262E7702206877226890682E4B13
:100E30001840FF231B02984390600A68502A32D062
:100E40000EDC202A4CD006DC002A49D0102A3BD1E7
:100E500046E0022070BD302A42D0402A34D137E02B
:100E6000602A28D0702A12D001200003121A2BD039
:100E7000824229D1CB684A688968206800F068FB03
:100E80002068816801229203114381601CE0CB68D5
:100E90004A688968206800F05BFB216888687722CF
:100EA0001043886010E0CA684968206800F066FB5B
:100EB0005021206806E0CA684968206800F06FFB8E
:100EC0006021206800F050FB6E770020287770BD0D
:100ED000CA684968206800F051FB40212068F1E7AA
:100EE00011462068EEE7000088FFCEFF7047000043
:100EF00070B50446006801690025C94389070029C7
:100F000015DBC168C943890711D4E91E01610120BD
:100F10002077206880698007204602D0FFF7E6FF2F
:100F200004E000F0A7F8204600F0A5F82577206837
:100F30000169C943490717D4C168C943490713D494
:100F40000421C9430161022020772068806980055F
:100F5000800F204602D0FFF7C9FF04E000F08AF8B6
:100F6000204600F088F8257720680169C943090701
:100F700016D4C168C943090712D40821C9430161C5
:100F8000042020772068C0698007204602D0FFF740
:100F9000ADFF04E000F06EF8204600F06CF8257715
:100FA00020680169C943C90617D4C168C943C90685
:100FB00013D41021C9430161082020772068C0693B
:100FC0008005800F204602D0FFF790FF04E000F07C
:100FD00051F8204600F04FF8257720680169C94391
:100FE000C90708D1C168C943C90704D1891E016175
:100FF000204600F041F820680169C943090609D478
:10100000C168C943090605D48021C943016120464E
:10101000FFF717FE20680169C943C90508D4C168F4
:10102000C943090604D4124901612046FFF708FEAE
:1010300020680169C943490609D4C168C943490602
:1010400005D44021C9430161204600F016F820680C
:101050000169C943890609D4C168C943890605D411
:101060002021C94301612046FFF7ECFD70BD00005F
:10107000FFFEFFFF704770477047704710B501468D
:1010800080310A78012A15D001220A7024224A6090
:10109000026813681468640864001460012252072F
:1010A00093430022426600680360202048600A7073
:1010B000104610BD022010BD70B5044605468034B0
:1010C000207801281AD00120207024206060286830
:1010D0000668026852085200026028688268072386
:1010E0005B069A430A438260284600F071FA28683A
:1010F0000660202060600020207070BD022070BD5E
:1011000070B50446054680342078012819D00120A6
:101110002070242060602868066802685208520027
:10112000026028688268D200D2080A43826028469A
:1011300000F04EFA286806602020606000202070D1
:1011400070BD022070BD70B5040005D02546803505
:101150006868002802D006E0012070BD00202870D9
:10116000204600F027F824206860206801684908BC
:1011700049000160204600F0F3FA0128EDD0A06A92
:10118000002802D0204600F053FA20684168092266
:10119000D20291434160206881682A229143816094
:1011A00020680168012211430160204600F0A6FA80
:1011B00070BD000010B586B0044614216846FEF7E5
:1011C000B2FF1149206888421CD11048C26B01212E
:1011D00049040A43C263C26B0A400592426B012173
:1011E0000A434263406B0291084005900C20009036
:1011F0000220019000200390049105206946000719
:10120000FFF706F806B010BD004400400010024091
:101210000B46014600B50448C170037011461846DC
:1012200000F004F800BD00001000002030B5064BAF
:10123000DA88402A07D2054D94002851E81DF9307C
:101240000151521CDA8030BD10000020A0010020A6
:1012500010B5002105480A46C180C1700171052002
:1012600020210007FFF787F810BD000010000020C4
:10127000FEE70000F0B587B014216846FEF753FF83
:101280002548426B04210A434263426B0A4005929F
:10129000416B202421434163416B21400591416B07
:1012A000012529434163416B29400591416B022689
:1012B00031434163406B00223040059005202021DE
:1012C0000007FFF758F8002210211448FFF753F8E1
:1012D00000276A460396B0C2052069460007FEF75C
:1012E00097FF10206946A1C169460C480397FEF795
:1012F0008FFF0B4801906946029700940748FEF75C
:1013000087FF002211460720FFF7A8F80720FFF704
:1013100099F807B0F0BD0000001002400004005032
:101320000000311010B588B00024009401941549D4
:1013300015480294039404940594069412C0046022
:1013400084601249046141600838FFF7B3FC00284B
:1013500001D072B6FEE701200003009069460A48FA
:10136000FFF758FD002801D072B6FEE7049404A9E7
:1013700005480694FFF768FC002801D072B6FEE726
:1013800008B010BD000400402C000020FFFF00004A
:1013900010B5194817490160E12149024160C904AB
:1013A00081600021C16001618161C16101620C2223
:1013B000416242618162FFF7C6FE002801D072B629
:1013C000FEE700210C48FFF79BFE002801D072B613
:1013D000FEE700210848FFF76FFE002801D072B633
:1013E000FEE70548FFF74AFE002801D072B6FEE787
:1013F00010BD00000044004010010020FEE77047CF
:10140000704710B5FEF7C4FF10BD30B599B0342158
:101410006846FEF788FE00240D940E940F941C215C
:1014200011A81094FEF77FFE01204002FFF71AF882
:101430000225E8010390009540200590049407944C
:101440006846FFF7EBF9002801D072B6FEE70720E7
:101450000D900E940F94002110940DA8FFF7D8F86A
:10146000002801D072B6FEE711A811951394FFF77A
:101470001FF8002801D072B6FEE719B030BD000099
:1014800001200249C00688607047000000ED00E0BE
:1014900010B50348FFF72CFDFEF762FE10BD0000FB
:1014A000C400002010B50348FFF722FDFEF780FEC0
:1014B00010BD00002C00002010B50248FFF718FDF9
:1014C00010BD000078000020F0B502681A4B1B4CDC
:1014D000984201D0A04203D17025AA434D682A4307
:1014E000174D184E184F98420AD0A04208D0174CFA
:1014F000A04205D0A84203D0B04201D0B84205D1E5
:101500001446032212029443CA6822438024A24351
:101510004C69224302608A68C2620A688262984209
:1015200005D0A84203D0B04201D0B84201D1096928
:10153000016301214161F0BD002C01400004004025
:1015400000400140004401400048014000200040AC
:1015500030B58468FF252D021B021343AC430B43B7
:101560002343836030BD00008268034B1A400A4366
:1015700007210A43826070478FFFCFFF30B5036AAF
:10158000046A6408640004628469F025AC431201B3
:1015900022430A24A3430B438261036230BD30B56A
:1015A000036A1024A34303628469036A0F252D0391
:1015B0001203AC432243A024A343090119438261CF
:1015C000016230BD01490120087070471C000020F5
:1015D000F0B513A106C985B00192009112A206CA06
:1015E000039202910446416E4034002915D00068F0
:1015F0008168806809014D0F400F02AE315C6F4673
:10160000385CC000FEF772FD6085785D715DC000DA
:10161000FEF76CFD208505B0F0BD01206085F9E77F
:10162000010101030701000008040204080101018F
:1016300010B5018DC90707D001684A6801235B0412
:101640009A43C36A1A434A60018D890707D5016826
:101650004A6801231B049A43036B1A434A60018DB5
:10166000490707D501684A6801239B049A43436BE5
:101670001A434A60018D090707D501684A680123AA
:10168000DB039A43836B1A434A60018DC90607D571
:101690000268916801231B039943C36B194391604E
:1016A000018D890607D501688A6801235B039A4387
:1016B000036C1A438A60018D490612D503685A6883
:1016C00001210905446C8A4322435A60426C8A42D4
:1016D00007D10268516803235B059943836C194362
:1016E0005160018D090607D501684A680123DB04B2
:1016F000C06C9A4302434A6010BD0000FEB5054627
:10170000002680350446EE60FEF73CFE019020681E
:101710000068124F000709D50121009700224905F2
:101720002046019B00F0E8F800280DD120680068F1
:1017300040070BD501210097002289052046019B17
:1017400000F0DAF8002801D00320FEBD20206860F8
:10175000A860E6662E700020FEBD0000FFFFFF01BE
:10176000F8B5044680682169E2690843616900258B
:1017700011430843616E014320680268544B1A40CC
:101780000A43026021684868032212039043E2681A
:1017900010434860A169206A084321688A684D4B5C
:1017A0001A4002438A602068C16A626A0909090115
:1017B0001143C162484A2068484990420AD14869A9
:1017C0008007800F20D0012814D0022810D00328D1
:1017D0001CD111E0424A904210D148690C210840C6
:1017E00012D0042806D0082802D00C280ED103E01D
:1017F00002210CE004210AE0082108E0394988426E
:1018000002D03949884201D1002100E01021012095
:10181000E369C003354A364E364F834228D100294A
:1018200006D0022907D0042907D0082941D108E0B1
:10183000FEF79AFF03E0104603E0FEF7A9FF002839
:101840003BD0616A4900715AFEF750FC6168400064
:101850004A088018FEF74AFC80B201461039B942A6
:1018600027D82449491C01400007400F084322E0C3
:10187000002906D0022907D0042907D0082918D149
:1018800008E0FEF771FF03E0104603E0FEF780FF7B
:10189000002812D0616A4900715AFEF727FC61687E
:1018A0004A088018FEF722FC80B201461039B9427E
:1018B00001D9012501E02168C8602046012140309E
:1018C000418501850020206760672846F8BD00003B
:1018D000F369FFCFFFF4FF110038014040100240D0
:1018E0000044004000480040004C00400024F40048
:1018F000701D0008EFFF0000FFB581B005460F46E0
:10190000044680350A9E38E0701C36D0FEF73AFD5A
:101910000499401AB04221D8002E1FD020680168D7
:1019200049072AD5C069C043000526D40120216893
:10193000C002086220680168FF22A1329143016061
:101940002068816849084900816020206860A8609B
:10195000E86000202870032005B0F0BD2068016811
:10196000FF22A13291430160206881684908490043
:10197000816020206860A860EBE72068C169384674
:10198000884305D0002103988142BDD00020E3E7C1
:101990000121F8E78307FF22DB0E9A408907090E31
:1019A0009940002808DB830809489B001B18186829
:1019B00090430843186070470007000F08388308F9
:1019C00004489B001B18D86990430843D8617047AE
:1019D00000E400E000ED00E002E008C8121F08C1CA
:1019E000002AFAD170477047002001E001C1121FA0
:1019F000002AFBD17047000010B5054C6078002824
:101A000005D100F09DF901206070FFF721FC10BDA9
:101A10001D00002010B5074900200870064901226A
:101A20000870052020210007FEF7A5FC00F0A0F8B3
:101A300010BD00001D0000201C000020F8B5214E44
:101A40000D4631791C46002910D0FF213E311E4A37
:101A50001E4B1F4F002827D001280ED18C420CD9D5
:101A600094420BD222462946002024E01A462946F9
:101A70000020FFF7CDFB01203071F8BD1248743013
:101A800084420ED31348844205D22246B178002006
:101A9000FFF7BEFB0CE0002D10D0012DEDD19C42D4
:101AA000EBD2FFF78FFDF8BD8C42FCD99442F2D205
:101AB000224629460120FFF7ABFBF8BDBC42F0D31C
:101AC000F8BD000010000020050200006C070000B7
:101AD000409C0000090400000EB5FEF761FCFFF712
:101AE00094FCFFF7C7FBFFF71DFC002416491748BD
:101AF00000940194029412C0154D04604560046185
:101B00000838FFF7D7F8002801D072B6FEE7009436
:101B100069460E480294FFF797F8002801D072B684
:101B2000FEE70A480B494C3001600F21021D32C20A
:101B3000802104618161FFF7BDF8002801D072B6F1
:101B4000FEE7FFF725FCFEE70010004078000020CC
:101B5000FFFF00000020004010B50349012008707D
:101B6000024800F0D3F810BD1D00002020A107009E
:101B7000FCB50020044669464200401C8C520328F4
:101B8000FADB3C480168002966D14168012963D12C
:101B900039490988891ECA0F5118C9030B0C102B2B
:101BA00001D0182B58D100210122CD002D18AE688C
:101BB000002E0BD1ED68012D08D16E463588072621
:101BC000771A1646BE4035436E463580491C0829B3
:101BD000EBDB0021CD002D18AE6C002E0BD1ED6C8F
:101BE000012D08D16E4675880726771A1646BE4025
:101BF00035436E467580491C0829EBDB0021CD007A
:101C00002D188035AE68002E0BD1ED68012D08D15E
:101C10006E46B5880726761A1746B7403D436E468E
:101C2000B580491C0829EADB14490D78081D002DF0
:101C300013D06D4602882D88AA420DD16D46428888
:101C40006D88AA4208D16A4680889288904203D162
:101C50004888984200D10C70FCBD0A704B806946E0
:101C60000988018069464988418069468988818060
:101C7000FCBD0000A0010020160000202000002074
:101C8000F8B51D4D2868406A1C4C1D4EA0602021EF
:101C90003046FEF76BFB002701280BD00120207097
:101CA00000F046F8286847622078002804D0012810
:101CB00004D007E02770F3E7124800E012482968D3
:101CC000C862E86001202968C04308610A48FFF73C
:101CD00059F820213046FEF749FB6070A07020784B
:101CE000002801D1FFF788FE62782178E078A368A8
:101CF000FFF7A4FEF8BD0000C40000201000002083
:101D000000040050409C00006C07000010B507491B
:101D100000220B685A620A68D062C8600120096814
:101D2000C04308610148FFF72DF810BD2C000020CA
:101D300010B50248FFF754F810BD0000C4000020A1
:101D400010B50248FFF74CF810BD00002C00002031
:101D500010B50348FFF7DAFFFFF75CFE10BD000087
:101D6000AC84010001490020087070471D0000206C
:101D7000010002000400060008000A000C00100028
:101D80002000400080000001000000000000000072
:101D90000000000000000000000000000000000043
:101DA0000000000000000000010000000200000030
:101DB000030000000400000006000000070000000F
:101DC0000800000009000000000000000000000002
:101DD0000000000000000000010000000200000000
:101DE0000300000004000000081E0008000000209E
:101DF0002C000000D8190008341E00082C00002018
:101E000074070000E8190008010000000400000049
:101E1000000000000024F4000000000000000000AA
:101E200000000000000000000000000000000000B2
:041E300000000000AE
:04000005080000B936
:00000001FF
