:020000040800F2
:10000000680B0020D10000081D190008A116000887
:1000100000000000000000000000000000000000E0
:10002000000000000000000000000000B91A0008F5
:10003000000000000000000039190008BB1A000889
:10004000E300000800000000E3000008E3000008EF
:10005000E3000008E3000008E30000084B0200088A
:1000600000000000E3000008E3000008E3000008CF
:10007000E3000008E3000008E300000800000000BF
:10008000711B0008851B0008E30000085D1B0008C9
:10009000E3000008E3000008E3000008E3000008B4
:1000A000E3000008E3000008E3000008E3000008A4
:1000B000E3000008E30000080448854600F03EF82D
:1000C000004800473D250008C046C046680B002098
:1000D0000448804704480047FEE7FEE7FEE7FEE7E6
:1000E000FEE7FEE7491B0008B900000830B50B46E3
:1000F000014600202022012409E00D46D5409D4202
:1001000005D31D469540491B254695404019154687
:10011000521E002DF1DC30BDD2B201E00270401C55
:10012000491EFBD270470022F6E710B513460A4677
:1001300004461946FFF7F0FF204610BD064C012586
:10014000064E05E0E36807CC2B430C3C984710347F
:10015000B442F7D3FFF7B4FFA0280008C028000876
:1001600070B58C180578401C6B075B0F01D10378C4
:10017000401C2A1106D10278401C03E006780E705C
:10018000401C491C5B1EF9D12B0705D40023521ECD
:100190000DD40B70491CFAE70378401CCB1A921C53
:1001A00003E01D780D70491C5B1C521EF9D5A1425D
:1001B000D8D3002070BD70477047704770477047B4
:1001C0007047704770477047704770477047704777
:1001D000704770477047000010B50B4800F0DCFE18
:1001E0000A490020084C08702068C06A0849884203
:1001F00001D102F003FA2068C06A0649884201D1A1
:1002000002F002FB10BD0000880400201E00002048
:10021000409C00006C07000070477047704700006A
:1002200001490880704700009E03002001490880B2
:1002300070470000A00300200149088070470000BB
:10024000A203002070477047704710B5202000F0CF
:1002500041F802F071FA10BD10B5084800F09CFE9C
:1002600007480078012801D102F0D8FA0548017842
:10027000012901D10021017010BD0000F003002010
:100280001D00002020000020704770477047704715
:1002900070477047704770477047704770477047A6
:1002A00070477047704770477047000070B504464C
:1002B00000F0E0F80546601C02D0044800782418DD
:1002C00000F0D8F8401BA042FAD370BD0000002017
:1002D0007047000070B5084D0446E868204203D01E
:1002E000EC60204600F00AF82869204203D02C6117
:1002F0002046FFF7EDFF70BD001802407047000078
:10030000FCB5002301259AE022462C469C40224061
:100310006FD04E68012E05D0022E03D0112E01D0D1
:10032000122E16D186680327B4465E00B646B74043
:100330006646BE43B446CF687646B7406646374306
:1003400087604668A6430C79E406E40F9C4034437A
:100350004460C6685F000324BC40A446A6438C6882
:10036000BC403443C4604C68022C01D0122C14D120
:10037000DC08A40024180194266A5C07B646E60E41
:100380000F24B44000967646A643B6460C69009EFC
:10039000B44076462643019C266204686646B44310
:1003A0000E79B607B60FBE40264306604C68E400DF
:1003B00044D59E08254CB6003419A446246E9E07E9
:1003C000F60E0F27B740BC4305273F07B84201D1BF
:1003D000002710E01E4FB84201D101270BE01D4F4E
:1003E000B84201D1022706E01B4FB84202D10327D1
:1003F00001E023E00527B740274364462766134EF4
:10040000803634684F689443FF0300D5144334604A
:1004100074684F689443BF0300D5144374600B4C59
:1004200026684F689643FF0200D51643266066682B
:100430004F689643BF0200D5164366605B1C0A688E
:100440001446DA4000D05FE7FCBD0000001802400F
:100450000004005000080050000C005000690840E3
:1004600000D001207047002A01D08161704781626D
:1004700070470000014880687047000000000020BD
:100480000248816802788918816070470000002066
:1004900010B5084800240168821511430160204608
:1004A00000F00AF8002801D0012401E000F028F84B
:1004B000204610BD0020024070B50F4E0024317858
:1004C0000546002915D07D20C000FFF70FFE01462C
:1004D0000A480068FFF70AFE00F012FC002808D165
:1004E000042D06D200222946401E00F02FF8756028
:1004F00000E00124204670BD000000200C00002018
:1005000008B50B48016801221143016000681040E2
:10051000009007484038C26B01040A43C263C06BB5
:10052000084000900320400200F0E0FB08BD0000FE
:1005300040100240002805DBC106C90E012088409A
:10054000014908607047000000E100E010B501F0CB
:1005500007FF10BD10B50F4C2168032252029143D2
:1005600001432160C11FFF39FA390ED10A48062123
:10057000006848430949FFF7B9FD401C02E0002824
:1005800005D0401E61694905F9D4002010BD032043
:1005900010BD0000007000400C00002040420F0021
:1005A000F8B5044600680026524D800358D55148DE
:1005B00000274038C06BC00009D44E484038C26B99
:1005C00001040A43C263C06B0840012700904A48F7
:1005D0000168821511430160FFF74CFF009005E0B0
:1005E000FFF748FF0099401A022825D842480068C2
:1005F000C005F5D5E8690321090208400FD0A169BB
:1006000081420CD0E86903210902EA69884301218B
:1006100009040A43EA61EA698A43EA61E861C007BA
:100620000FD0FFF727FF009008E0FFF723FF0099A6
:10063000411A3248814201D9032609E0E86980075E
:10064000F3D5E869032109028843A1690843E861F9
:10065000002F05D027484038C16B02049143C16385
:100660002078C00705D06869616880088000084369
:1006700068612078800705D568690C218843A168E6
:10068000084368612078800606D56869032109035C
:100690008843E168084368612088400411D568698F
:1006A00061698000800808436861012160698907E9
:1006B000884206D10F484038C16801221204114314
:1006C000C1602088000512D5686903218903884329
:1006D000216908436861012120698903884206D1A4
:1006E00004484038C168012212041143C1603046F9
:1006F000F8BD000040100240007000408813000068
:10070000F8B50F46060043D04D4D28684007400F0E
:10071000B84213D22868C008C00038432860FFF7E9
:10072000A9FE044605E0FFF7A5FE011B45488142EE
:1007300061D828684007400FB842F4D13068424C75
:1007400081070DD5400704D5A06807210903084398
:10075000A060A0680F2109028843B1680843A06027
:100760003078C00732D0706801280AD002280BD038
:1007700000280FD03449403103280ED0C9698907B9
:1007800004E02168890301E021688901002906DB72
:100790000120F8BD21684905F8E7096AEFE7A1687B
:1007A000C908C9000143A160FFF764FE009006E09C
:1007B000FFF760FE0099411A224881421BD8A068C9
:1007C000382108407168C9008842F1D12868400783
:1007D000400FB84217D91A480168C908C9003943FF
:1007E0000160FFF747FE054607E0FFF743FE411BA8
:1007F0001448814201D90320F8BD11480068400720
:10080000400FB842F1D13078400706D5A0680721E3
:1008100009038843F1680843A06000F031F8A1683B
:100820003C2289091140094A515CC906C90EC840D9
:100830000749086007480068FFF73EFEF8BD000062
:1008400000200240881300000010024040280008E9
:100850000C00002004000020064807490068896851
:10086000064A4904490F8900515CC906C90EC840AF
:10087000704700000C000020001002408028000893
:1008800010B5204CA068204A8006400F16D0A06802
:100890008006410F501001290FD0A1688906490F29
:1008A000022912D0A0688006400F042823D0A06837
:1008B0008006400F032821D0002010BD20680121B0
:1008C0008004400F8140104612E0E1688B07E16828
:1008D0009B0F4906490F491C032B00D01046FFF718
:1008E00005FCE1684904490E4843E168490F491C89
:1008F000FFF7FCFB10BD0120C00310BD7D200002EE
:1009000010BD0000001002400024F400F8B50400FF
:100910007ED020783827C007EB4D002846D0A86845
:10092000E96838408907890F102802D008280BD0C1
:1009300001E0032908D001206268000482420AD144
:1009400029680143296015E0286880032ED5606876
:100950000028DDD02AE0052301211B0489049A42E6
:100960002A6802D10A432A60EAE782432A6028689B
:1009700088432860606800280CD0FFF77BFD06469E
:1009800004E0FFF777FD801B642873D82868800394
:10099000F7D50BE0FFF76EFD064604E0FFF76AFDB2
:1009A000801B6428F1D828688003F7D4207880075A
:1009B00069D5A868E96838408A070721920FC902FB
:1009C000102802D0002813D001E0022A10D0E068DD
:1009D000002846D028688843216908432860286891
:1009E000FF21013108432860FFF744FD06462CE053
:1009F0002A68520502D5E268002A89D06A687F23F6
:100A00001B029A4363691B021A436A60002800E0D4
:100A10008DE00ED128688843216908432860286842
:100A200001218004400F8140A848FFF75FFBA849DF
:100A30000860A8480068FFF73FFD002877D122E052
:100A4000FFF718FD801B02289FD828684005F7D5BE
:100A500068687F2109028843616909020843686068
:100A600011E02968FF20013081432960FFF702FD72
:100A7000064605E098E0FFF7FDFC801B022884D8BD
:100A800028684005F7D42078934E00072ED5A86833
:100A90008006400F03280AD0A0690028306A16D0CB
:100AA000012108433062FFF7E5FC07460BE0306A9E
:100AB00080071BD5A06900289FD017E0FFF7DAFC5C
:100AC000C01B022870D8306A8007F7D50EE04008B6
:100AD00040003062FFF7CEFC074604E0FFF7CAFC97
:100AE000C01B022860D8306A8007F7D420784007FE
:100AF0006CD5A86800278006400F042818D0E86B42
:100B0000C00008D4E96B012000070143E963E96BE9
:100B100001400127009171480168C90519D4016895
:100B2000821511430160FFF7A5FC00900DE083E002
:100B3000F06980074AD5A06800287DD046E0FFF71D
:100B400099FC0099401A02282ED864480068C00514
:100B5000F5D5A168012910D004200529F16911D02B
:100B600049084900F161F1698143F161A0680028F9
:100B700016D0FFF77FFC00900EE0F06901210843DA
:100B8000F061F3E70143F161F7E7FFF773FC0099C8
:100B9000411A534881426DD8F0698007F5D50EE0BF
:100BA000FFF768FC009007E064E0FFF763FC009942
:100BB000411A4B4881425DD8F0698007F5D4002F77
:100BC00004D0E96B012000078143E963E069002854
:100BD00077D0A9688906490F022951D00126360627
:100BE000022828680DD0B0432860E868800880009B
:100BF000E860E8683B490840E860FFF73BFC0446D2
:100C00003AE0B0432860FFF735FC074604E0FFF701
:100C100031FCC01B02282DD828688001F7D4616AF6
:100C2000206AA26A0843E16A120211430843216B59
:100C30000843E9682C4A00E041E011400843E860BD
:100C4000286830432860E868012109070843E86004
:100C5000FFF710FC044604E0FFF70CFC001B022821
:100C600008D828688001F7D52BE0FFF703FC001BAC
:100C7000022801D90320F8BD28688001F5D420E0BE
:100C80000128F8D0E868226A8107890F914216D1BD
:100C90007021626A0140914211D17F21A26A09024A
:100CA0000140120291420AD11F214904E26A014027
:100CB000914204D1400F216B4007884201D00120AE
:100CC000F8BD0020F8BD0000001002400024F40030
:100CD0000C00002004000020401002400070004082
:100CE00088130000FFFFFEEF8C80C11F03490A68D4
:100CF00003235B029A4302430A60704700000140ED
:100D0000094910B5401E884201D9012010BD074C89
:100D100060610321081F01F023FB0020A061072070
:100D20002061002010BD0000FFFFFF0000E000E098
:100D3000704770477047000070B5034620331A7F34
:100D4000012A4BD001221A770325CA682D02AA4333
:100D50008D6800682A430125AD02AA434D6800242E
:100D60002A430125ED02AA430D682A4301252D03DC
:100D7000AA430D692A4301256D03AA434D692A43FD
:100D80000125AD03AA430D6B2A430F252D04AA4369
:100D90000D8B2D042A43124DA84204D1012636079B
:100DA000B243CE693243A84214D10F252D05AA4380
:100DB0000D8D2D052A4301252D06AA430D6A2A43D0
:100DC00001256D06AA434D6AC96A2A4301256D07AC
:100DD000AA430A4342641C77002070BD022070BD04
:100DE000002C0140F0B5034620331A7F012A27D09A
:100DF00001221A7702225A7704686268A568114FA7
:100E0000BC4205D116460F22120596434A6832436A
:100E10007026B2430E68164366600068B84205D07B
:100E2000094A904202D0094A904204D1802289683E
:100E30009543294381600120587700201877F0BD41
:100E40000220F0BD002C01400004004000400140A1
:100E500070B5040005D025462035687F002802D0F3
:100E600006E0012070BD00202877204600F016F82B
:100E700002206877211D206800F08CFE012240349A
:100E80002272AA77EA7722706270A270E2702271F1
:100E90006271A271E2716A77002070BD08B52249C3
:100EA000026822488A4207D10268C1140A430260DC
:100EB00000680840009008BD1C491D4B40399A420B
:100EC0000DD1CA6B02200243CA63C96B00220140E4
:100ED000009111461020FFF739FB10200FE0154B51
:100EE0009A420FD1CA6B10200243CA63C96B002219
:100EF0000140009111461120FFF728FB1120FFF758
:100F000019FB08BD0C498A42FBD10268C9130A4388
:100F10000260006800220840009011461320FFF78D
:100F200015FB1320EBE70000002C014040100240AD
:100F30000004004000100040002000400146203125
:100F40004A7F012A01D00120704702224A770168B6
:100F5000CB6801221343CB6000680B49884205D05F
:100F60000A49884202D00A49884207D18168094B60
:100F70001940062905D0DB1F994202D001681143B0
:100F80000160002070470000002C01400004004078
:100F900000400140070001000168CA685208520081
:100FA000CA6001680A6A084B1A4207D10A6A9B1094
:100FB0001A4203D10A68520852000A600121203007
:100FC00041770020704700001111000070B5054600
:100FD00004462035287F012817D001262E770220CD
:100FE0006877226890682E4B1840FF231B029843B5
:100FF00090600A68502A32D00EDC202A4CD006DCE1
:10100000002A49D0102A3BD146E0022070BD302A88
:1010100042D0402A34D137E0602A28D0702A12D03A
:1010200001200003121A2BD0824229D1CB684A68D2
:101030008968206800F0FFFD206881680122920322
:10104000114381601CE0CB684A688968206800F021
:10105000F2FD2168886877221043886010E0CA6832
:101060004968206800F06AFF5021206806E0CA68DD
:101070004968206800F073FF6021206800F0E6FDF9
:101080006E770020287770BDCA684968206800F034
:1010900055FF40212068F1E711462068EEE7000087
:1010A00088FFCEFF7047000070B5044600680169F4
:1010B0000025C9438907002915DBC168C943890791
:1010C00011D4E91E01610120207720688069800722
:1010D000204602D0FFF7E6FF04E000F0CDF82046FE
:1010E00000F081F9257720680169C943490717D4C1
:1010F000C168C943490713D40421C94301610220CF
:101100002077206880698005800F204602D0FFF795
:10111000C9FF04E000F0B0F8204600F064F925773C
:1011200020680169C943090716D4C168C943090782
:1011300012D40821C9430161042020772068C069C6
:101140008007204602D0FFF7ADFF04E000F094F8DE
:10115000204600F048F9257720680169C943C9068F
:1011600017D4C168C943C90613D41021C94301610A
:10117000082020772068C0698005800F204602D0B3
:10118000FFF790FF04E000F077F8204600F02BF91D
:10119000257720680169C943C90708D1C168C943D7
:1011A000C90704D1891E0161204600F085F9206835
:1011B0000169C943090609D4C168C943090605D4B0
:1011C0008021C94301612046FFF7B3FD2068016912
:1011D000C943C90508D4C168C943090604D41249E2
:1011E00001612046FFF7A4FD20680169C943490653
:1011F00009D4C168C943490605D44021C9430161E6
:10120000204600F05AF920680169C943890609D4CB
:10121000C168C943890605D42021C943016120461C
:10122000FFF788FD70BD0000FFFEFFFF10B586B020
:10123000044614216846FEF776FF0D49206888426F
:1012400014D10C48416B012211434163406B0221D0
:101250001040059010020090002002900390019130
:101260000491052069460007FFF74AF806B010BD53
:10127000002C0140001002407047F8B506460446B5
:101280002036307F0D4601280CD00120082730770A
:101290000C2A44D008DC002A0BD0042A19D0082AD2
:1012A00077D12CE00220F8BD102A4ED0142A70D13C
:1012B0005BE0206800F0D4FC2068816939438161DB
:1012C00020688169042291438161206881692A69CB
:1012D00012E0206800F00AFD206881690122D20234
:1012E0001143816120688269012189028A438261F8
:1012F000206881692A6912021143816149E02068EE
:1013000000F036FD2068C1693943C1612068C169B8
:1013100004229143C1612068C1692A6912E02068F2
:1013200000F06AFD2068C1690122D2021143C16147
:101330002068C269012189028A43C2612068C169AB
:101340002A6912021143C16123E0206800F08EFD7A
:101350002068416D394341652068426D04218A430C
:1013600042652068416D2A6911E0206800F0B0FDF7
:101370002068416D0122D202114341652068416D10
:101380005210914341652068416D2A691202114350
:10139000416500203077F8BD70B5040005D02546C2
:1013A0002035687F002802D006E0012070BD0020B3
:1013B0002877204600F016F802206877211D206863
:1013C00000F0E8FB012240342272AA77EA7722700B
:1013D0006270A270E27022716271A271E2716A772A
:1013E000002070BD7047704730B50446022320309E
:1013F00000290ED0042911D020464030082912D0EF
:101400000C2915D0102918D0C278012A1AD0012031
:1014100030BD827F012AFAD1837714E0C27F012A8E
:10142000F5D1C3770FE00278012AF0D103700AE00A
:101430004278012AEBD1437005E08278012AE6D197
:10144000837000E0C3700122206800F0E7FB1449BC
:101450002068144A884207D0904205D0124B984227
:1014600002D0124B984204D1436C0125ED032B436B
:10147000436420680123884204D00D49884201D08A
:10148000904207D181680B4A1140062905D0D21F2E
:10149000914202D0016819430160002030BD000074
:1014A000002C014000400140004401400048014040
:1014B00000040040070001007047704710B5014666
:1014C00080310A78012A15D001220A7024224A604C
:1014D00002681368146864086400146001225207EB
:1014E00093430022426600680360202048600A702F
:1014F000104610BD022010BD70B50446054680346C
:10150000207801281AD001202070242060602868EB
:101510000668026852085200026028688268072341
:101520005B069A430A438260284600F031FD286832
:101530000660202060600020207070BD022070BD19
:1015400070B50446054680342078012819D0012062
:1015500020702420606028680668026852085200E3
:10156000026028688268D200D2080A438260284656
:1015700000F00EFD286806602020606000202070CA
:1015800070BD022070BD70B5040005D025468035C1
:101590006868002802D006E0012070BD0020287095
:1015A000204600F027F82420686020680168490878
:1015B00049000160204600F0B3FD0128EDD0A06A8B
:1015C000002802D0204600F013FD2068416809225F
:1015D000D20291434160206881682A229143816050
:1015E00020680168012211430160204600F066FD79
:1015F00070BD000010B586B0044614216846FEF7A1
:1016000092FD1149206888421CD11048C26B01210B
:1016100049040A43C263C26B0A400592426B01212E
:101620000A434263406B0291084005900C200090F1
:1016300002200190002003900491052069460007D4
:10164000FEF75EFE06B010BD0044004000100240F0
:101650000B46014600B50448C17003701146184698
:1016600000F004F800BD00001000002030B5064B6B
:10167000DA88402A07D2054D94002851E81DF93038
:101680000151521CDA8030BD10000020640500209A
:1016900002480021C180C170017170471000002014
:1016A000FEE7704770470000F0B587B01421684628
:1016B000FEF739FD2548426B04210A434263426B21
:1016C0000A400592416B202421434163416B214034
:1016D0000591416B012529434163416B29400591E7
:1016E000416B022631434163406B0022304005903C
:1016F000052020210007FEF7B6FE00221021144825
:10170000FEF7B1FE00276A460396B0C2052069467F
:101710000007FEF7F5FD10206946A1C169460C4897
:101720000397FEF7EDFD0B48019069460297009480
:101730000748FEF7E5FD002211460720FEF706FFE9
:101740000720FEF7F7FE07B0F0BD000000100240D2
:10175000000400500000111010B59CB00024199432
:101760001A9417941894149415941C210DA8169487
:10177000FEF7D9FC34216846FEF7D5FC2E492F48E8
:1017800012C0046084608915C460416080210161D9
:101790000838FFF75DFB002801D072B6FEE7012094
:1017A0000003179017A92548FFF710FC002801D067
:1017B00072B6FEE72148FFF7EFFD002801D072B6B0
:1017C000FEE71494159414A91C481694FFF70AFB1D
:1017D000002801D072B6FEE760200D9004200E9420
:1017E00011900F941094129400220DA91394134891
:1017F000FFF743FD002801D072B6FEE701200094F8
:101800004003059001940294049400030394069409
:101810000794099008940A940B9469460C9407481D
:10182000FFF78AFA002801D072B6FEE70348FFF7F7
:10183000FDFC1CB010BD0000002C0140A4030020E2
:1018400010B588B0002400940194184802940394C1
:10185000049405941449069401600F21846041604A
:10186000012189030461C16080218161FFF7F0FAE1
:10187000002801D072B6FEE70120000300906946FF
:101880000A48FFF7A3FB002801D072B6FEE70494D4
:1018900004A906480694FFF7A5FA002801D072B6FD
:1018A000FEE708B010BD000000040040F003002077
:1018B00010B5194817490160E12149024160C90486
:1018C00081600021C16001618161C16101620C22FE
:1018D000416242618162FFF756FE002801D072B674
:1018E000FEE700210C48FFF72BFE002801D072B65E
:1018F000FEE700210848FFF7FFFD002801D072B67F
:10190000FEE70548FFF7DAFD002801D072B6FEE7D2
:1019100010BD000000440040D4040020FEE700BFDA
:10192000704710B50520002220210007FEF79BFD1F
:1019300010BD7047704770477047704770477047D9
:1019400070477047704770477047704770477047DF
:1019500070477047704770477047704770477047CF
:1019600070477047704770477047704770477047BF
:1019700070477047704770477047704770477047AF
:10198000704770477047704770477047704770479F
:10199000704770477047704770477047704710B581
:1019A0000520012220210007FEF75DFD10BD7047D4
:1019B000704770477047704770477047704770476F
:1019C000704770477047704770477047704770475F
:1019D000704770477047704770477047704770474F
:1019E000704770477047704770477047704770473F
:1019F00070477047704770477047704770470000E6
:101A00000248034900880880704700009E030020B8
:101A100098030020024803490088088070470000AE
:101A20009E0300209A030020024803490088088092
:101A3000704700009E0300202C000020024803494C
:101A400000880880704700009E0300202A000020C4
:101A50000248034900880880704700009E03002068
:101A60009C0300200248034900880880704700005A
:101A70009E03002094030020704770477047704712
:101A8000704770477047704770477047704770479E
:101A9000704770477047704770470000024803491D
:101AA00000880880704700009E03002096030020F5
:101AB0007047704770477047704710B5FEF7E0FCFD
:101AC00010BD30B599B034216846FEF72CFB0024D8
:101AD0000D940E940F941C2111A81094FEF723FB73
:101AE00001204002FEF736FD0225E8010390009533
:101AF0004020059009200A9028040B900795400388
:101B000004940C90089509946846FEF7FFFE00289F
:101B100001D072B6FEE707200D900F9401210E95BB
:101B200010940DA8FEF7ECFD002801D072B6FEE778
:101B300011A811951394FEF733FD002801D072B659
:101B4000FEE719B030BD000001200249C0068860E0
:101B50007047000000ED00E07047000010B503483A
:101B6000FFF7A2FAFEF738FB10BD00008804002042
:101B700010B50348FFF798FAFEF76EFB10BD0000A2
:101B8000F003002010B50248FFF78EFA10BD0000E8
:101B90003C040020F0B502681A4B1B4C984201D05F
:101BA000A04203D17025AA434D682A43174D184E11
:101BB000184F98420AD0A04208D0174CA04205D036
:101BC000A84203D0B04201D0B84205D11446032246
:101BD00012029443CA6822438024A2434C692243E0
:101BE00002608A68C2620A688262984205D0A8428E
:101BF00003D0B04201D0B84201D10969016301218B
:101C00004161F0BD002C0140000400400040014053
:101C100000440140004801400020004010B5CB06C0
:101C2000DB0E0121046A99408C430462016A9A40E8
:101C30001143016210BD30B58468FF252D021B02DF
:101C40001343AC430B432343836030BD8268034B93
:101C50001A400A4307210A43826070478FFFCFFF73
:101C6000F0B5026A520852000262056A436882694E
:101C7000194C1B4E224092080C6892001443022219
:101C800095438A682A43154DA84207D0B04205D033
:101C9000144FB84202D0144FB84206D10827BA43B5
:101CA000CF681743042297433A46A84207D0B04270
:101CB00005D00C4DA84202D00B4DA84206D10325F9
:101CC0002D02AB434D691D438B692B4343608461F7
:101CD000496841630262F0BD8FFFFEFF002C0140A6
:101CE00000400140004401400048014070B5026AD4
:101CF00010239A430262046A43688269174D2A409E
:101D000003252D02AA430D682D021543202294437A
:101D10008A6812012243124CA04207D18024A243B8
:101D2000CC68402624012243B24308E00D4CA04277
:101D300005D00D4CA04202D00C4CA04208D1032487
:101D4000A402A3434C69A4001C438B699B0023435A
:101D50004360856149688163026270BDFF8FFFFE49
:101D6000002C014000400140004401400048014077
:101D700070B5026AFF2301339A430262046A436822
:101D8000C269184D2A4092080D689200154301223D
:101D9000520294438A6812022243134CA04208D193
:101DA0001446CA68C614B443120222430415A2435F
:101DB00008E00E4CA04205D00D4CA04202D00D4CC4
:101DC000A04208D103242403A3434C6924011C43EB
:101DD0008B691B0123434360C5614968C16302628B
:101DE00070BD00008FFFFEFF002C0140004001404D
:101DF000004401400048014030B5026A01231B0342
:101E00009A430262046A4368C269134D2A4003255B
:101E10002D02AA430D682D0215430122520394435B
:101E20008A68120322430D4CA04208D00C4CA042F9
:101E300005D00C4CA04202D00B4CA04205D101248D
:101E4000A403A3434C69A40123434360C5614968CB
:101E50000164026230BD0000FF8FFFFE002C0140D4
:101E600000400140004401400048014070B5026A52
:101E700001263604B2430262046A4268436D0F4D84
:101E80002B400D681D4373009C430B891B042343A7
:101E90000B4CA04208D00B4CA04205D00A4CA042EB
:101EA00002D00A4CA04203D14C69B243240222431F
:101EB0004260456549688165036270BD8FFFFEFF22
:101EC000002C014000400140004401400048014016
:101ED00030B5026A01231B059A430262046A426814
:101EE000436D114D2B400D682D021D4301235B05F1
:101EF0009C430B891B0523430C4CA04208D00C4C7F
:101F0000A04205D00B4CA04202D00B4CA04205D100
:101F10000124A404A2434C69A40222434260456503
:101F20004968C165036230BDFF8FFFFE002C014090
:101F300000400140004401400048014030B5036AC0
:101F4000046A6408640004628469F025AC431201E9
:101F500022430A24A3430B438261036230BD30B5A0
:101F6000036A1024A34303628469036A0F252D03C7
:101F70001203AC432243A024A34309011943826105
:101F8000016230BD01490120087070471C0000202B
:101F9000F0B513A106C985B00192009112A206CA3C
:101FA000039202910446416E4034002915D0006826
:101FB0008168806809014D0F400F02AE315C6F46A9
:101FC000385CC000FEF792F86085785D715DC000F6
:101FD000FEF78CF8208505B0F0BD01206085F9E79B
:101FE00001010103070100000804020408010101C6
:101FF00010B5018DC90707D001684A6801235B0449
:102000009A43C36A1A434A60018D890707D501685C
:102010004A6801231B049A43036B1A434A60018DEB
:10202000490707D501684A6801239B049A43436B1B
:102030001A434A60018D090707D501684A680123E0
:10204000DB039A43836B1A434A60018DC90607D5A7
:102050000268916801231B039943C36B1943916084
:10206000018D890607D501688A6801235B039A43BD
:10207000036C1A438A60018D490612D503685A68B9
:1020800001210905446C8A4322435A60426C8A420A
:1020900007D10268516803235B059943836C194398
:1020A0005160018D090607D501684A680123DB04E8
:1020B000C06C9A4302434A6010BD0000FEB505465D
:1020C000002680350446EE60FEF7D4F901902068C2
:1020D0000068124F000709D5012100970022490529
:1020E0002046019B00F0E8F800280DD12068006828
:1020F00040070BD501210097002289052046019B4E
:1021000000F0DAF8002801D00320FEBD202068602E
:10211000A860E6662E700020FEBD0000FFFFFF01F4
:10212000F8B5044680682169E269084361690025C1
:1021300011430843616E014320680268544B1A4002
:102140000A43026021684868032212039043E26850
:1021500010434860A169206A084321688A684D4B92
:102160001A4002438A602068C16A626A090909014B
:102170001143C162484A2068484990420AD14869DF
:102180008007800F20D0012814D0022810D0032807
:102190001CD111E0424A904210D148690C210840FC
:1021A00012D0042806D0082802D00C280ED103E053
:1021B00002210CE004210AE0082108E039498842A4
:1021C00002D03949884201D1002100E010210120CC
:1021D000E369C003354A364E364F834228D1002981
:1021E00006D0022907D0042907D0082941D108E0E8
:1021F000FEF732FB03E0104603E0FEF741FB002848
:102200003BD0616A4900715AFDF770FF6168400078
:102210004A088018FDF76AFF80B201461039B942BA
:1022200027D82449491C01400007400F084322E0F9
:10223000002906D0022907D0042907D0082918D17F
:1022400008E0FEF709FB03E0104603E0FEF718FB89
:10225000002812D0616A4900715AFDF747FF616892
:102260004A088018FDF742FF80B201461039B94292
:1022700001D9012501E02168C860204601214030D4
:10228000418501850020206760672846F8BD000071
:10229000F369FFCFFFF4FF11003801404010024006
:1022A0000044004000480040004C00400024F4007E
:1022B00028280008EFFF0000FFB581B005460F4653
:1022C000044680350A9E38E0701C36D0FEF7D2F8FE
:1022D0000499401AB04221D8002E1FD0206801680E
:1022E00049072AD5C069C043000526D401202168CA
:1022F000C002086220680168FF22A1329143016098
:102300002068816849084900816020206860A860D1
:10231000E86000202870032005B0F0BD2068016847
:10232000FF22A13291430160206881684908490079
:10233000816020206860A860EBE72068C1693846AA
:10234000884305D0002103988142BDD00020E3E7F7
:102350000121F8E7704770477047704770470000E9
:102360008307FF22DB0E9A408907090E9940002857
:1023700008DB830809489B001B1818689043084332
:10238000186070470007000F0838830804489B0056
:102390001B18D86990430843D861704700E400E0F7
:1023A00000ED00E002E008C8121F08C1002AFAD1BF
:1023B00070477047002001E001C1121F002AFBD1C5
:1023C0007047000010B5054C6078002805D100F07A
:1023D00013FA01206070FFF75BF910BD1D000020AB
:1023E00010B50449002008700349087000F012F984
:1023F00010BD00001D0000201C00002070B50888E2
:102400001A46C307164CDB0F6370164C7F282488CE
:1024100007D84006850E0020A54201D100F026F81D
:1024200070BD9F280AD8C006040F0125A540ACB294
:102430000D4D00202D882542F0D170BDCB2801D84C
:102440000120EBE7FB2801D800BF70BD0006400E5D
:102450007E2801D1FF2C01D07F28F5D10020DDE7B7
:1024600020000020300000202E00002010B54A88F7
:10247000002B06D0012808D0074990000858804753
:1024800010BD1046FDF7C9FE10BD09881046034A6D
:1024900089005158884710BD340000204C030020AB
:1024A000F8B5214E0D4631791C46002910D0FF2188
:1024B0003E311E4A1E4B1F4F002827D001280ED147
:1024C0008C420CD994420BD222462946002024E0AB
:1024D0001A4629460020FFF7BBF801203071F8BDED
:1024E0001248743084420ED31348844205D22246E7
:1024F000B1780020FFF7ACF80CE0002D10D0012DD2
:10250000EDD19C42EBD2FFF73DFDF8BD8C42FCD9EA
:102510009442F2D2224629460120FFF799F8F8BDED
:10252000BC42F0D3F8BD00001000002005020000FE
:102530006C070000409C0000090400000EB5002458
:10254000FDF7A6FFFFF7BDFAFFF7AEF8FFF778F942
:1025500000252549254800950195029522C0056072
:102560002349056141600838FEF772FC002801D05C
:1025700072B6FEE7009569461C480295FEF732FCEC
:10258000002801D072B6FEE718481A494C300160A5
:102590000F2185604160012189030561C1608021AF
:1025A0008161FEF755FC002801D072B6FEE7FFF707
:1025B0007FF9FFF7D1F80D4800219838FEF714FF96
:1025C0000D4D6C63641CE4B21920FDF76FFEFF2C07
:1025D000F7D305E06C63641EE4B21920FDF766FED4
:1025E000002CEED0F6E70000001000403C04002074
:1025F000FFFF000000200040002C014010B50349FF
:1026000001200870024800F0DDF810BD1D00002018
:1026100020A10700FEB50020024669464300401C89
:10262000CA520328FADB4149086800280FD14868DC
:1026300001280CD13E483F4F0088801EC30F181858
:10264000C003040C102C03D0182C01D03A70FEBD2E
:102650000020C3005B189D68002D0BD1DB68012BA7
:1026600008D16D462B8807252E1A0125B5402B432E
:102670006D462B80401C0828EBDB0020C3005B1854
:102680009D6C002D0BD1DB6C012B08D16D466B8846
:1026900007252E1A0125B5402B436D466B80401C43
:1026A0000828EBDB0020C3005B1880339D68002DF9
:1026B0000BD1DB68012B08D16B469D8807231E1ABE
:1026C0000123B3401D436B469D80401C0828EADB74
:1026D00018493878091D002819D06B4608881B88CE
:1026E0009842B4D16B4648885B889842AFD18888BD
:1026F000694689888842AAD17888A042A7D13A70D1
:1027000002230C490322091DFFF778FEFEBD0120BC
:1027100038707C806A4612880A806A4652884A80ED
:102720006A46928820468A800123EAE764050020F1
:102730001600002020000020F8B51D4D2868406AD2
:102740001C4C1D4EA06020213046FDF787FE00275F
:1027500001280BD00120207000F046F8286847625D
:102760002078002804D0012804D007E02770F3E780
:10277000124800E012482968C862E8600120296810
:10278000C04308610A48FEF7D9FB20213046FDF717
:1027900065FE6070A0702078002801D1FFF712FE5E
:1027A00062782178E078A368FFF77AFEF8BD000030
:1027B000880400201000002000040050409C00000D
:1027C0006C07000010B5074900220B685A620A68BE
:1027D000D062C86001200968C04308610148FEF763
:1027E000ADFB10BDF003002010B50248FEF7D4FB8E
:1027F00010BD00008804002010B50248FEF7CCFB95
:1028000010BD0000F003002010B50348FFF7DAFF09
:10281000FFF7E6FD10BD0000AC8401000149002077
:10282000087070471D00002001000200040006002F
:1028300008000A000C001000200040008000000189
:102840000000000000000000000000000000000088
:102850000000000000000000000000000000000078
:10286000010000000200000003000000040000005E
:10287000060000000700000008000000090000003A
:102880000000000000000000000000000000000048
:10289000010000000200000003000000040000002E
:1028A000C028000800000020A40300006001000808
:1028B000EC2A0008A4030020C4070000B423000889
:1028C00032018204031B24F412AA12FE341180196F
:1028D0001323191408552314081D021408B51A1BD4
:1028E00008B1041A9F141AAF041AB30C1A33081A49
:1028F000451C1A89041A1F0CE9041A8B181A8D0436
:102900001A9B041A9D041A9F041AA1041AA3041AFC
:10291000A5041AA7041AA9041A8F041A91041A9379
:10292000041A95041A97041A99041AF3441AB768FA
:102930001AF5081A51081AF1080B10A316681A297B
:102940001C1A3D041A9D041A65041A15041A010480
:102950000A11FD94092A041A79441A7B041A89047D
:102960001A8B041A8D041A8F041A91041A93041AEC
:1029700095041A97041A7D041A7F041A81041A8395
:10298000041A85041A87041AD1441AD3041AE104DC
:102990001AE3041AE5041AE7041AE9041AEB041A04
:1029A000ED041AEF041AD5041AD7041AD9041ADB55
:1029B000041ADD042ADFFC12011B08B9041AC7043B
:1029C0001AC9041ACB041ACD041ACF041AD1041A56
:1029D000D3041AD5041ABB041ABD041ABF041AC1C1
:1029E000041AC3041AC5041AB1441AB3041AC10460
:1029F0001AC3041AC5041AC7041AC9041ACB041A44
:102A0000CD041ACF042AB56C19041AB9041ABB04F0
:102A10001ABD041ABF041A99C41349021B081F0CDB
:102A20000932041A97041A45041A51041A53041A55
:102A300057041A73041A5F041A9B041A41041A47B4
:102A4000041A65041A67041A3D041A3F041A630441
:102A50001A55041A3B041A5B041A5D042A6990197A
:102A6000041A4B041A59041A61045A49680A154396
:102A7000801A75041A83041A85041A87041A8904B3
:102A80001A8B041A8D041A8F041A91041A93041ACB
:102A900077041A79041A7B041A7D041A7F041A81B8
:102AA000041A4D041A4F041A6B041A6F041A6D04A9
:102AB0002A7180121B140821021408A5161B089DF8
:102AC000101A190C1359231B08350C1AF7041AFB9A
:102AD000041AF9042A37F419182A95E819241A2D2A
:0C2AE000041A39041A5B141A5D0401107A
:04000005080000B936
:00000001FF
